:100000000C945B000C9454030C9478000C947800CE
:100010000C9478000C9478000C9478000C94780080
:100020000C9478000C9478000C9478000C947E0367
:100030000C9478000C947A000C9478000C9478005E
:100040000C9478000C9478000C9478000C94780050
:100050000C9496030C9478000C9478000C9478001F
:100060000C9478000C9478000C9478000C94780030
:1000700052504D3A0000001F000000001F00001FFA
:10008000101010101F00001F181818181F00001F54
:100090001C1C1C1C1F00001F1E1E1E1E1F00001FFC
:1000A0001F1F1F1F1F0003070F1F0F070300181C30
:1000B0001E1F1E1C180011241FBECFEFD0E1DEBF93
:1000C000CDBF1CE0ACE0B2E001C01D92A936B10783
:1000D000E1F712E0A0E0B1E0E8E9F8E202C0059043
:1000E0000D92AC30B107D9F70E94900A0C944A14D3
:1000F0000C9400001F920F920FB60F9211242F92B2
:100100003F924F925F926F927F928F929F92AF92A7
:10011000BF92CF92DF92EF92FF920F931F932F9394
:100120003F934F935F936F937F938F939F93AF937F
:10013000BF93CF93DF93EF93FF9310926F00509094
:10014000190CB09B14C080915A0C90915B0CA0913B
:100150005C0CB0915D0C0196A11DB11D80935A0CF1
:1001600090935B0CA0935C0CB0935D0CB09A809163
:100170008400909185003C018824992480915A0C38
:1001800090915B0CA0915C0CB0915D0CDC01992707
:100190008827680E791E8A1E9B1E4090180C70E0FE
:1001A00061E0FFEFAF2EFFEFBF2EFFEFCF2EFFE797
:1001B000DF2EEBE02E2E33243394CBE0D0E043C08F
:1001C000629DD0011124A65EB34F1A968C911A97A6
:1001D0008230A1F41296ED90FD900D911C9115972F
:1001E0006E147F048006910620F01A963C921A97AE
:1001F00005C0EA14FB040C051D0510F0860175010D
:100200001A968C911A978130D9F4872F90E08C9FA1
:10021000F0018D9FF00D9C9FF00D1124E85EF34FCF
:1002200016962D913D914D915C9119978085918500
:10023000A285B385281739074A075B0708F4762F8C
:100240006F5F57016801461608F0BACF7515B1F017
:10025000EBE05E9ED0011124A65EB34F8DB78C9368
:100260008EB711968C937E9FF0011124E65EF34FBA
:1002700081818EBF80818DBF7093190CA0925E0C1E
:10028000B0925F0CC092600CD092610C20918400FF
:100290003091850040E050E080915A0C90915B0CC9
:1002A000A0915C0CB0915D0CDC0199278827280F88
:1002B000391F4A1F5B1FD601C501821B930BA40B7C
:1002C000B50B9C01AD0184309105A105B10524F465
:1002D00024E030E040E050E080918400909185007F
:1002E000A0E0B0E0820F931FA41FB51F8050904084
:1002F000A140B04038F48091840090918500820F35
:10030000931F0EC080918400909185008C5F9F4F59
:1003100028F4109289001092880006C084E090E0D2
:10032000909389008093880082E080936F00FF9112
:10033000EF91DF91CF91BF91AF919F918F917F917D
:100340006F915F914F913F912F911F910F91FF906E
:10035000EF90DF90CF90BF90AF909F908F907F9065
:100360006F905F904F903F902F900F900FBE0F9027
:100370001F901895109285001092840010928000B2
:1003800025E02093810022E020936F002FEF30E1E1
:10039000281B390B3093590C2093580C1092180CD1
:1003A0001092190C10925A0C10925B0C10925C0C6B
:1003B00010925D0C8FEF9FEFAFEFBFE780935E0C65
:1003C00090935F0CA093600CB093610C8093200C11
:1003D0009093210CA093220CB093230C10921C0C30
:1003E00010921D0C10921E0C10921F0C7894089500
:1003F0008F929F92AF92BF92CF92DF92EF92FF9235
:100400000F931F93CF93DF9349015A01F8942091E2
:10041000180C2F5F2093180CC091580CD091590CD8
:100420009E01261B370B3093590C2093580C888360
:10043000FE0192933197DF01CE014B971C921197E9
:10044000A817B907D9F77997C082D2923197DF01FF
:100450009E01235230401C921197A217B307D9F77F
:100460009F0126503040E091180C8BE0E89FF0018E
:100470001124E65EF34F82829382A482B582E682E3
:10048000F7820087118782E08287208331830E9470
:100490007A00DF91CF911F910F91FF90EF90DF9045
:1004A000CF90BF90AF909F908F900895F894E8E11F
:1004B000FCE0E80FF11D60AF78940895482F20917B
:1004C000190CF894E82FF0E0E05BF34F808188236B
:1004D00019F08150808310C030E08BE090E0289FBD
:1004E000F001299FF00D389FF00D1124E65EF34FC7
:1004F0004E5F42870E947A0078940895FF920F938E
:100500001F93182FF8940091180CE1E04FEF5FEF64
:100510006FEF7FEFF0E08BE0F82E212F30E02E5FC1
:100520003F4F1EC0EF9DD0011124A65EB34F1A9617
:100530008C911A9790E08217930769F416968D9123
:100540009D910D90BC91A02D481759076A077B0714
:1005500010F0FE2F02C0DB01CA01EF5FAC01BD014C
:100560000E1700F7FF2341F4E12FF0E0E95EF34FAF
:1005700081AD8F5F81AF11C02F2F30E08BE090E015
:10058000289FF001299FF00D389FF00D1124E85E9F
:10059000F34F81E084870E947A0078941F910F9135
:1005A000FF900895209184003091850040E050E054
:1005B00080915A0C90915B0CA0915C0CB0915D0CF9
:1005C000DC0199278827280F391F4A1F5B1FB901B3
:1005D000CA010895E091190CABE0EA9FF0011124E3
:1005E000E65EF34FF894A2E0A2876283738384836C
:1005F000958326833783408751870E947A00089528
:100600008091190C90E02BE030E0829FF001839FF5
:10061000F00D929FF00D1124E85EF34FDF01149668
:10062000648111967C91119712968C911297139672
:100630009C9108958091190C90E02BE030E0829F0E
:10064000F001839FF00D929FF00D1124E85EF34FAF
:10065000DF011896608511967C91119712968C9106
:10066000129713969C910895F8948091190C90E03C
:100670002BE030E0829FF001839FF00D929FF00D00
:100680001124E85EF34F14860E947A000895F894CE
:10069000E82FF0E0E05BF34F8081882319F0815070
:1006A00080838F5F789408951F920F920FB60F92F8
:1006B00011242F938F939F93EF93FF93E2EBF0E03E
:1006C00020818091150C9091160C820F911D9093B2
:1006D000660C8093650C10821092160C1092150C0B
:1006E0001092120C1092110CFF91EF919F918F912B
:1006F0002F910F900FBE0F901F9018951F920F9281
:100700000FB60F9211248F939F938091150C9091A7
:10071000160C80509F4F9093160C8093150C9F9150
:100720008F910F900FBE0F901F9018951F920F92F0
:100730000FB60F9211242F933F934F935F936F93B4
:100740007F938F939F93AF93BF93EF93FF9380918A
:10075000C6008093100C8091100C8A3A41F41092DC
:10076000F30B1092F20B1092F00B1092EF0B8091A2
:10077000F20B9091F30B8130910511F182309105CC
:1007800059F1892B09F02AC11092640C1092630C64
:100790001092680C1092670C10920F0C10920E0CB5
:1007A0001092170C109214021092F10B1092F80B89
:1007B0008091100C8A3A09F00CC181E090E007C0EA
:1007C0008091100C8B3B09F004C182E090E0909383
:1007D000F00B8093EF0B06C18091100C8F3709F05E
:1007E000A4C01092F00B1092EF0B8091F80B90E0E8
:1007F0009093680C8093670C6091170C2091140201
:100800004091F10B5091F80B30E094E0220F331F30
:100810009A95E1F7942F80E0280F391F260F311D9C
:10082000952F9295907F80E0280F391F3093F70B1A
:100830002093F60B8091670C9091680C0E9784F5CD
:100840008091670C9091680C97FD2AC080910E0CE6
:1008500090910F0C8A3591051CF580910E0C9091AA
:100860000F0C97FD1DC02091670C3091680C4091D2
:100870000E0C50910F0C6091F60B7091F70B8AE5FE
:1008800090E0289FF001299FF00D389FF00D112472
:10089000E40FF51FEE0FFF1FEB5EFD4F71836083CA
:1008A00080910E0C90910F0C8F3F910519F520E06F
:1008B00030E0AAE5B0E06FEF7FEF12C0FA01E80F79
:1008C000F91FEE0FFF1FEB5EFD4F718360830196F2
:1008D0008A35910599F72F5F3F4F2E30310551F042
:1008E00080E090E02A9FA0012B9F500D3A9F500D71
:1008F0001124E4CF80910E0C90910F0C8E3F910546
:1009000039F481E090E09093EE0B8093ED0B61C0A1
:1009100080910E0C90910F0C8D3F910509F059C0FC
:100920001092EE0B1092ED0B54C08091630C9091DD
:10093000640C05970CF04DC08091630C9091640C91
:10094000892B41F48091100C90E090930F0C8093D0
:100950000E0C2FC08091630C9091640C019731F4C0
:100960008091100C8F708093170C23C08091630CC2
:100970009091640C029731F48091100C8F708093E9
:10098000140217C08091630C9091640C039731F4AA
:100990008091100C8F708093F10B0BC08091630CD1
:1009A0009091640C049729F48091100C8F708093BF
:1009B000F80B82E090E09093F00B8093EF0B809126
:1009C000630C9091640C01969093640C8093630C7B
:1009D00009C01092F00B1092EF0B04C01092F30BB1
:1009E0001092F20B8091EF0B9091F00B9093F30B20
:1009F0008093F20BFF91EF91BF91AF919F918F91F7
:100A00007F916F915F914F913F912F910F900FBE0A
:100A10000F901F901895AF92BF92CF92DF92EF92F6
:100A2000FF920F931F930F2EF0E0AF2EF0E0BF2E3A
:100A3000F0E0CF2EF0E0DF2EF02D8091650C90914C
:100A4000660C892B09F16091650C7091660C882702
:100A500077FD8095982F0E9488102DEB37E346E8AC
:100A600058E30E94820E9B01AC0160E070E080E8D8
:100A70009FE30E947C0F60930A0C70930B0C809391
:100A80000C0C90930D0C08C0A0920A0CB0920B0CA9
:100A9000C0920C0CD0920D0C20915A0C30915B0C32
:100AA00040915C0C50915D0CA90133272227609185
:100AB000840070918500E0908400F090850080E0D3
:100AC00090E0620F731F841F951F625B7F4F8F4FF3
:100AD0009F4F00E010E02E0D3F1D401F511F235A75
:100AE0003F4F4F4F5F4F0E94EA02A7CF2F923F9296
:100AF0004F925F926F927F928F929F92AF92BF922E
:100B0000CF92DF92EF92FF920F931F93DF93CF93D9
:100B1000CDB7DEB760970FB6F894DEBF0FBECDBF7E
:100B20001A862CE4298728872F832E834DE44D8352
:100B30004C834B836EE46A836983BEE42B2EAEE460
:100B40003A2E5524539466246A94762CF0EF8F2E17
:100B50009F2E8091ED0B9091EE0B019709F0FAC159
:100B60004090620C9985892F90E09C878B87E8855F
:100B7000AE2FB0E09F81892F90E09E878D87FE8108
:100B8000EF2FF0E0F88BEF874D81242F30E06C8160
:100B9000462F50E08B81682F70E09A81092F10E07A
:100BA000E981EE2EFF24C22CDD24A32CBB24FA8580
:100BB000F41518F4552039F40DC08A85841519F4FC
:100BC000552009F4E7C09A85992321F0E1E05E16EB
:100BD00009F4E0C0FA85FF5FFA878B859C85880F52
:100BE000991F8F5C9B4FFC0171826082AA0FBB1F13
:100BF000A756BA4F11967C926E928D859E85880F6E
:100C0000991F835B994FDC0111967C926E92EF8560
:100C1000F889EE0FFF1FEF5FF84F71826082220F9D
:100C2000331F2F5C3B4FD90111967C926E92440F7B
:100C3000551F47565A4FFA0171826082660F771F1F
:100C40006F5F784FDB0111967C926E92000F111F3F
:100C50000F5C1B4FF80171826082EE0CFF1C85EE69
:100C600094E0E80EF91ED70111967C926E92CC0C9E
:100C7000DD1CE9E9F5E0CE0EDF1ED60111967C926F
:100C80006E92AA0CBB1CE1E0F7E0AE0EBF1ED501D0
:100C900011967C926E92B985BF5FB987E885EF5F48
:100CA000E887FF81FF5FFF832E812F5F2E834D81B9
:100CB0004F5F4D836C816F5F6C838B818F5F8B8304
:100CC0009A819F5F9A83A981AF5FA983239433940C
:100CD000EB2FF0E0EE0FFF1FEF5CFB4F9182808265
:100CE000B885EB2FF0E0EE0FFF1FE756FA4F918229
:100CF00080822F81E22FF0E0EE0FFF1FE35BF94FC0
:100D0000918280824E81E42FF0E0EE0FFF1FEF5FB3
:100D1000F84F918280826D81E62FF0E0EE0FFF1F89
:100D2000EF5CFB4F918280828C81E82FF0E0EE0F28
:100D3000FF1FE756FA4F918280829B81E92FF0E0F6
:100D4000EE0FFF1FEF5FF84F91828082AA81EA2F9A
:100D5000F0E0EE0FFF1FEF5CFB4F91828082B981C4
:100D6000EB2FF0E0EE0FFF1FEB51FB4F91828082E3
:100D7000E22DF0E0EE0FFF1FE756FA4F91828082DE
:100D8000E32DF0E0EE0FFF1FEF5FF84F91828082BE
:100D90005524E0C0EA85E150EA878B859C85880F61
:100DA000991F8F5C9B4FFC0171826082AA0FBB1F51
:100DB000A756BA4F11967C926E928D859E85880FAC
:100DC000991F835B994FDC0111967C926E92EF859F
:100DD000F889EE0FFF1FEF5FF84F71826082220FDC
:100DE000331F2F5C3B4FD90111967C926E92440FBA
:100DF000551F47565A4FFA0171826082660F771F5E
:100E00006F5F784FDB0111967C926E92000F111F7D
:100E10000F5C1B4FF80171826082EE0CFF1C85EEA7
:100E200094E0E80EF91ED70111967C926E92CC0CDC
:100E3000DD1CE9E9F5E0CE0EDF1ED60111967C92AD
:100E40006E92AA0CBB1CE1E0F7E0AE0EBF1ED5010E
:100E500011967C926E92B985B150B987E885E150C0
:100E6000E887FF81F150FF832E8121502E834D8131
:100E700041504D836C8161506C838B8181508B8399
:100E80009A8191509A83A981A150A9832A943A9476
:100E9000EB2FF0E0EE0FFF1FEF5CFB4F91828082A3
:100EA000B885EB2FF0E0EE0FFF1FE756FA4F918267
:100EB00080822F81E22FF0E0EE0FFF1FE35BF94FFE
:100EC000918280824E81E42FF0E0EE0FFF1FEF5FF2
:100ED000F84F918280826D81E62FF0E0EE0FFF1FC8
:100EE000EF5CFB4F918280828C81E82FF0E0EE0F67
:100EF000FF1FE756FA4F918280829B81E92FF0E035
:100F0000EE0FFF1FEF5FF84F91828082AA81EA2FD8
:100F1000F0E0EE0FFF1FEF5CFB4F91828082B98102
:100F2000EB2FF0E0EE0FFF1FEB51FB4F9182808221
:100F3000E22DF0E0EE0FFF1FE756FA4F918280821C
:100F4000E32DF0E0EE0FFF1FEF5FF84F91828082FC
:100F50005524539420915A0C30915B0C40915C0CB9
:100F600050915D0CA9013327222760918400709174
:100F70008500E0908400F090850080E090E0620FB2
:100F8000731F841F951F6C57714E8F4F9F4F00E04A
:100F900010E02E0D3F1D401F511F2F563E4D4F4F4D
:100FA0005F4F0E94EA02D5CD81E08DBB93E0909324
:100FB000690097E09093B1008093700008951092BB
:100FC000F30B1092F20B1092F00B1092EF0B81E0EA
:100FD0008093C5008FE98093C40080E98093C100AD
:100FE00086E08093C2001092640C1092630C109201
:100FF0000F0C10920E0C1092680C1092670C10924D
:10100000170C109214021092F10B1092F80B109220
:10101000F70B1092F60B1092100C089595B121E089
:1010200030E002C0220F331F8A95E2F7822F8095AD
:10103000892385B96EBD0DB407FEFDCF8EB54EBDBB
:101040000DB407FEFDCF8EB585B1282B25B90895C7
:101050001F93CF93DF938FEB84B9289A299A2A9A0A
:101060002B9A2C9A80E58CBD81E08DBDC0E0D0E04C
:101070001BC0CE01612F4FEF0E940E081F5F1A3078
:10108000C1F7CE0165E143E00E940E08CE0163E1A5
:101090004FEF0E940E08CE0160E141E10E940E0870
:1010A0002196C530D10511F010E0E3CFDF91CF914B
:1010B0001F9108952F923F924F925F926F927F926D
:1010C0008F929F92AF92BF92CF92DF92EF92FF9258
:1010D0000F931F93DF93CF93CDB7DEB7AA970FB6C9
:1010E000F894DEBF0FBECDBF4AE5242E312C4E0151
:1010F0000894811C911C3FE0632E712C6C0E7D1EA8
:101100002DE1422E512C4C0E5D1E8091110C9091C0
:10111000120C8A3591051CF000E010E061C100E07E
:1011200010E0E091110CF091120C029DD001039D92
:10113000B00D129DB00D1124EA0FFB1FEE0FFF1F23
:10114000EB5EFD4F60817181E091110CF091120C0A
:10115000EA0FFB1FEE0FFF1FEB5EFD4F4081518139
:10116000407F50708091110C9091120CA80FB91F04
:10117000AA0FBB1FAB5EBD4F2D913C9120703F70FD
:101180006F70F401E00FF11F862F8295807F860F2C
:101190008083F301E00FF11FCA0154E09695879513
:1011A0005A95E1F7840F8083F201E00FF11FC90126
:1011B00044E0969587954A95E1F7830F80830F5F0A
:1011C0001F4F0E30110509F0ACCF80E090E062E0D7
:1011D00049810E940E0880E090E067E04A810E9409
:1011E0000E0882E090E062E04B810E940E0881E0F0
:1011F00090E068E04C810E940E0882E090E063E09D
:101200004D810E940E0882E090E066E04E810E94CF
:101210000E0881E090E063E04F810E940E0882E0BA
:1012200090E069E048850E940E0884E090E068E064
:1012300049850E940E0883E090E061E04A850E94A3
:101240000E0883E090E066E04B850E940E0884E083
:1012500090E063E04C850E940E0883E090E069E036
:101260004D850E940E0884E090E060E04FEF0E9400
:101270000E0880E090E061E04F850E940E0880E05B
:1012800090E066E048890E940E0882E090E061E00C
:1012900049890E940E0880E090E069E04A890E9436
:1012A0000E0880E090E064E04B890E940E0882E026
:1012B00090E065E04C890E940E0881E090E062E0D9
:1012C0004D890E940E0882E090E068E04E890E94FD
:1012D0000E0884E090E067E04F890E940E0883E0EA
:1012E00090E062E0488D0E940E0883E090E065E0A7
:1012F000498D0E940E0884E090E064E04A8D0E94CF
:101300000E0883E090E068E04B8D0E940E0884E0B8
:1013100090E061E04FEF0E940E0880E090E060E016
:101320004D8D0E940E0880E090E065E04E8D0E9499
:101330000E0882E090E060E04F8D0E940E0880E091
:1013400090E068E048A10E940E0880E090E063E031
:1013500049A10E940E0881E090E069E04AA10E9444
:101360000E0882E090E064E04BA10E940E0882E04B
:1013700090E067E04CA10E940E0881E090E064E0FC
:101380004DA10E940E0883E090E063E04EA10E9410
:101390000E0884E090E069E04FA10E940E0883E00F
:1013A00090E060E048A50E940E0883E090E067E0CE
:1013B00049A50E940E0884E090E062E04FEF0E9491
:1013C0000E0810C0C8016E2D4FEF0E940E08E39466
:1013D0008AE0E816B9F70F5F1F4F0530110511F0CD
:1013E000EE24F0CF8091110C9091120C833B91056B
:1013F0004CF48091110C9091120C01969093120C68
:101400008093110CA0900A0CB0900B0CC0900C0CA7
:10141000D0900D0CC601B50120E030E040E050E076
:101420000E942810882309F440C0E0908400F090C6
:10143000850000E010E080915A0C90915B0CA09127
:101440005C0CB0915D0CDC0199278827E80EF91E31
:101450000A1F1B1F60E070E080E89FE3A601950172
:101460000E947C0F20E030E044E353E40E947C0FB4
:101470002AE939E949E95EE30E94820E20E034E27C
:1014800044E75BE40E94820E20E030E040E85AE34B
:101490000E94820E0E94AC0CAB01BC014E0D5F1D80
:1014A000601F711F8A019B0129C080915A0C909185
:1014B0005B0CA0915C0CB0915D0CDC019927882736
:1014C0002091840030918500A90160E070E0480F10
:1014D000591F6A1F7B1F44565F4F6F4F7F4F2091EC
:1014E000840030918500890120E030E0080F191F49
:1014F0002A1F3B1F06511F4F2F4F3F4FCB01BA01F1
:10150000A90198010E94EA0200CE0E94DC0B0E9411
:10151000440C0E94750B80E060E00E94920B0895DD
:10152000CF92DF92EF92FF920F931F9391E09DBBBA
:1015300083E08093690087E08093B100909370000E
:101540000E94DF071AB80E94280882ED94E00E94EA
:10155000E3131092F50B1092F40B1092F30B109210
:10156000F20B1092F00B1092EF0B1092120C1092E3
:10157000110C8AE590E09093140C8093130C20E0FA
:1015800030E0AAE5B0E06FEF7FEF12C0FA01E80F9C
:10159000F91FEE0FFF1FEB5EFD4F71836083019615
:1015A0008A35910599F72F5F3F4F2E30310551F065
:1015B00080E090E02A9FA0012B9F500D3A9F500D94
:1015C0001124E4CF1092EE0B1092ED0B8AE0809381
:1015D000620C1092660C1092650C1092160C109210
:1015E000150C8CE291E00E94BA01F89481E080939E
:1015F000540C7894F8941092550C78948BE095E004
:1016000068EC70E024ED30E340E050E0EFEEEE2EC9
:10161000E7E0FE2E012D112DBCE0CB2EB2E0DB2E3B
:101620000E94F8018AE598E068EC70E024E83EE169
:1016300040E050E0AAE1EA2EA6E0FA2E012D112D9D
:10164000FEE0CF2EF2E0DF2E0E94F80186E795E063
:1016500068EC70E02AE136E040E050E0E7E2EE2E90
:10166000E9E0FE2E012D112D0E94F801FFCF282F59
:10167000207F28B9409A429A20EA3FE0F901319749
:10168000F1F742984098F9013197F1F790E044E082
:10169000880F991F4A95E1F788B9409A429AC90183
:1016A0000197F1F742984098C9010197F1F7089521
:1016B000282F207F28B9429A20EA3FE0F90131978C
:1016C000F1F74298F9013197F1F790E054E0880F73
:1016D000991F5A95E1F788B9429AC9010197F1F724
:1016E0004298C9010197F1F7089581E00E94580BD3
:1016F000089582E00E94580B08950F931F93CF9393
:10170000DF93062F009749F0EC0110E004C08991A7
:101710000E94370B1F5F1017D0F3DF91CF911F91FD
:101720000F910895623031F0633031F0613029F467
:10173000805C03C08C5E01C08C5A80680E94580B8C
:1017400008951F93CF93DF93EC01862F642F0E949F
:10175000920B10E003C00E94370B1F5FFE01E10FE8
:10176000F11D84918823B9F7DF91CF911F910895DE
:10177000EF92FF920F931F93CF93DF937C01162F6D
:10178000110F110F110F1064C0E0D0E0F701EC0F42
:10179000FD1F0491812F8C0F0E94580B802F0E94F7
:1017A000370B2196C830D10589F7DF91CF911F9172
:1017B0000F91FF90EF9008951F93CF93DF9380E6F2
:1017C0009AEE0197F1F718B818B887B1806F87B90A
:1017D00087B1876087B980E388B9429A20EA3FE001
:1017E000F9013197F1F74298F9013197F1F788B98A
:1017F000429AC9010197F1F74298C9010197F1F79F
:1018000080E288B9429AC9010197F1F74298C9016B
:101810000197F1F788E20E94580B8CE00E94580B68
:10182000C6E7D0E060E0162F1F5FCE010E94B80B24
:101830002896612F1830B9F7DF91CF911F91089545
:101840000F931F93082F10E004C08EE10E94580BE5
:101850001F5F1017D0F31F910F9108950F931F93DF
:10186000082F10E004C088E10E94580B1F5F10177A
:10187000D0F31F910F9108958EE00E94580B0895A8
:101880008FE00E94580B08958CE00E94580B089539
:1018900088E00E94580B08958CE00E94580B089530
:1018A0000F931F93082F10E004C080E10E94580B93
:1018B0001F5F1017D0F31F910F9108950F931F937F
:1018C000082F10E004C084E10E94580B1F5F10171E
:1018D000D0F31F910F910895DF92EF92FF920F9333
:1018E0001F93CF93DF93D42E96E0899FC0011124DC
:1018F000242F30E0AC01429FC001439F900D529FC6
:10190000900D112470E00E944313EB01CB0166E0BF
:1019100070E00E942F13E82EFF2400E010E012C0B8
:10192000C8010596C817D90710F085E006C0C01792
:10193000D10710F08E2D01C080E00E94370BF39488
:101940000A5F1F4FFD1460F3DF91CF911F910F913C
:10195000FF90EF90DF900895EF92FF920F931F9307
:101960007B018C0120E030E040E05FE40E945810F1
:1019700088238CF0C801B70120E030E040E05FE44C
:101980000E94240E0E94E6109B01AC0120503040C2
:101990004040504806C0C801B7010E94E6109B01B4
:1019A000AC01B901CA011F910F91FF90EF9008950A
:1019B000A0E0B0E0EEEDFCE00C945613DC012B014E
:1019C000FA019C91923008F439C1EB018881823090
:1019D00008F433C1943069F4843009F02FC11196B2
:1019E0009C9111978981981709F428C1A0E0B1E072
:1019F00025C1843009F421C18230A9F4923009F064
:101A00001DC19A01AD0188E0EA010990AE01E9012A
:101A100009929E018150C1F7E201898111969C9142
:101A20008923818308C1923009F407C112962D9051
:101A30003C901397EB018A819B811496AD90BD90E9
:101A4000CD90DC901797EC80FD800E811F81910175
:101A5000281B390BB90137FF04C066277727621BA3
:101A6000730B603271050CF061C0121613066CF531
:101A700037014801062E04C09694879477946794A2
:101A80000A94D2F721E030E040E050E004C0220F99
:101A9000331F441F551F6A95D2F7215030404040F4
:101AA00050402E213F21402351232115310541056E
:101AB000510521F021E030E040E050E079018A0159
:101AC000E628F728082919293CC0232BD1F1260E36
:101AD000371E35014601062E04C0969487947794EC
:101AE00067940A94D2F721E030E040E050E004C06F
:101AF000220F331F441F551F6A95D2F721503040E3
:101B0000404050402A213B214C215D2121153105C7
:101B10004105510521F021E030E040E050E059015D
:101B20006A01A628B728C828D9280BC082159305B2
:101B30002CF01C01AA24BB24650103C0EE24FF2461
:101B4000870111969C91D20111968C91981709F4F6
:101B500045C0992339F0A80197012A193B094C097E
:101B60005D0906C0A60195012E193F09400B510BD6
:101B700057FD08C011823382228224833583468335
:101B800057831DC081E08183338222828827992771
:101B9000DC01821B930BA40BB50B84839583A68376
:101BA000B7830DC0220F331F441F551F2483358375
:101BB0004683578382819381019793838283248113
:101BC000358146815781DA01C9010197A109B1091F
:101BD0008F5F9F4FAF4FBF4328F30BC0918333827A
:101BE0002282EA0CFB1C0C1D1D1DE482F58206837B
:101BF000178383E08083248135814681578157FF95
:101C00001AC0C901AA2797FDA095BA2F81709070BC
:101C1000A070B0705695479537952795822B932BDA
:101C2000A42BB52B84839583A683B783828193816C
:101C3000019693838283DF0101C0D201CD01CDB72C
:101C4000DEB7E2E10C947213A0E2B0E0EAE2FEE05B
:101C50000C94621369837A838B839C832D833E83E8
:101C60004F835887E9E0EE2EF12CEC0EFD1ECE01DD
:101C70000196B7010E945E128E010F5E1F4FCE01CA
:101C80000596B8010E945E128A8991E089278A8BA5
:101C9000C701B801AE01475E5F4F0E94D80C0E9499
:101CA0008911A096E6E00C947E13A0E2B0E0EBE58B
:101CB000FEE00C94621369837A838B839C832D836B
:101CC0003E834F835887F9E0EF2EF12CEC0EFD1E7A
:101CD000CE010196B7010E945E128E010F5E1F4F6A
:101CE000CE010596B8010E945E12C701B801AE018F
:101CF000475E5F4F0E94D80C0E948911A096E6E0D3
:101D00000C947E13A0E2B0E0E8E8FEE00C945613D9
:101D100069837A838B839C832D833E834F8358878B
:101D2000CE010196BE01675F7F4F0E945E12CE0119
:101D30000596BE016F5E7F4F0E945E1299859230BC
:101D400088F089898230C8F0943019F4823051F4D7
:101D500004C0843029F4923081F480E091E0C6C060
:101D6000923049F420E09A858A89981321E02A87E5
:101D7000CE010996BBC0823049F420E09A858A8959
:101D8000981321E02A8BCE014196B0C02D843E8469
:101D90004F8458886D887E888F88988CEE24FF2425
:101DA0008701AA24BB24650140E050E060E070E0B8
:101DB000E0E0F0E0C10181709070892BE9F0E60C61
:101DC000F71C081D191D9A01AB012A0D3B1D4C1D66
:101DD0005D1D80E090E0A0E0B0E0E614F7040805A7
:101DE000190520F481E090E0A0E0B0E0BA01A9017B
:101DF000480F591F6A1F7B1FAA0CBB1CCC1CDD1C83
:101E000097FE08C081E090E0A0E0B0E0A82AB92ADF
:101E1000CA2ADB2A3196E032F10549F0660C771CBC
:101E2000881C991C5694479437942794C3CFFA85FD
:101E3000EA892B893C898B859C85280F391F2E5F69
:101E40003F4F17C0CA0181709070892B61F01695C1
:101E50000795F794E79480E090E0A0E0B0E8E82AE6
:101E6000F92A0A2B1B2B76956795579547952F5F77
:101E70003F4F77FDE7CF0CC0440F551F661F771FFC
:101E800017FD4160EE0CFF1C001F111F2150304058
:101E9000403090E0590790E0690790E4790760F3DB
:101EA0002B8F3C8FDB01CA018F779070A070B070D0
:101EB00080349105A105B10561F447FD0AC0E11424
:101EC000F1040105110529F0405C5F4F6F4F7F4F12
:101ED00040781A8EFE1711F081E08A8F4D8F5E8F49
:101EE0006F8F78A383E0898FCE0149960E94891174
:101EF000A096E2E10C947213A8E1B0E0E2E8FFE002
:101F00000C945E1369837A838B839C832D833E8339
:101F10004F835887B9E0EB2EF12CEC0EFD1ECE015D
:101F20000196B7010E945E128E010F5E1F4FCE0117
:101F30000596B8010E945E122985223008F47EC001
:101F40003989323010F4B8017CC08A859A89892792
:101F50008A87243011F0223031F4231709F06EC043
:101F600060E071E06EC0343039F41D861E861F8635
:101F7000188A1C861B8604C0323021F484E08987CD
:101F8000B7015FC02B853C858B899C89281B390B49
:101F90003C872B87ED84FE840F851889AD88BE8829
:101FA000CF88D88CEA14FB040C051D0540F4EE0C18
:101FB000FF1C001F111F215030403C872B8720E061
:101FC00030E040E050E080E090E0A0E0B0E460E08D
:101FD00070E0EA14FB040C051D0540F0282B392B9A
:101FE0004A2B5B2BEA18FB080C091D09B695A7952F
:101FF00097958795EE0CFF1C001F111F6F5F7F4F99
:102000006F31710531F7DA01C9018F779070A070D7
:10201000B07080349105A105B10561F427FD0AC0B7
:10202000E114F1040105110529F0205C3F4F4F4FE9
:102030005F4F20782D873E874F87588BBE01675FA3
:102040007F4FCB010E9489116896EAE00C947A13C5
:10205000A8E1B0E0EEE2F0E10C94621369837A83C8
:102060008B839C832D833E834F83588789E0E82EA2
:10207000F12CEC0EFD1ECE010196B7010E945E12FE
:102080008E010F5E1F4FCE010596B8010E945E12B1
:102090008985823040F08989823028F0C701B801F3
:1020A0000E94D61201C081E06896E6E00C947E138F
:1020B000A8E1B0E0EEE5F0E10C94621369837A8365
:1020C0008B839C832D833E834F83588789E0E82E42
:1020D000F12CEC0EFD1ECE010196B7010E945E129E
:1020E0008E010F5E1F4FCE010596B8010E945E1251
:1020F0008985823040F08989823028F0C701B80193
:102100000E94D61201C08FEF6896E6E00C947E1311
:10211000A8E0B0E0EEE8F0E10C945F139B01AC01A5
:1021200083E08983DA01C9018827B7FD8395992760
:10213000AA27BB27B82E211531054105510519F4F1
:1021400082E089833AC08823A9F0203080E03807F4
:1021500080E0480780E8580729F460E070E080E0FC
:102160009FEC30C0EE24FF248701E21AF30A040B2F
:10217000150B02C079018A018EE1C82ED12CDC82B8
:10218000CB82ED82FE820F831887C801B7010E94BF
:102190003A1101971816190684F4082E04C0EE0CA3
:1021A000FF1C001F111F0A94D2F7ED82FE820F83DD
:1021B0001887C81AD90ADC82CB82BA82CE0101966E
:1021C0000E9489112896E9E00C947B13ACE0B0E002
:1021D000ECEEF0E10C94661369837A838B839C8325
:1021E000CE010196BE016B5F7F4F0E945E128D8112
:1021F000823061F1823050F1843021F48E81882365
:1022000051F12EC02F81388537FD20C06E812F31CE
:1022100031051CF06623F9F023C08EE190E0821BAB
:10222000930B29853A854B855C8504C05695479567
:10223000379527958A95D2F76623B1F0509540954A
:10224000309521953F4F4F4F5F4F0EC020E030E05B
:1022500040E050E009C02FEF3FEF4FEF5FE704C0D1
:1022600020E030E040E050E8B901CA012C96E2E0FD
:102270000C948213EF92FF920F931F937B018C01BA
:1022800080E0E81680E0F80681E0080780E01807A3
:1022900088F48FEFE816F1040105110531F028F0FC
:1022A00088E090E0A0E0B0E017C080E090E0A0E01F
:1022B000B0E012C080E0E81680E0F80680E0080791
:1022C00081E0180728F088E190E0A0E0B0E004C0C9
:1022D00080E190E0A0E0B0E020E230E040E050E0BB
:1022E000281B390B4A0B5B0B04C016950795F79416
:1022F000E7948A95D2F7F701E85FFE4F8081281BAB
:10230000310941095109C9011F910F91FF90EF90C7
:102310000895DF92EF92FF920F931F93FC01E480E8
:10232000F58006811781D1808081823048F480E079
:1023300090E0A0E1B0E0E82AF92A0A2B1B2BA5C007
:10234000843009F49FC0823021F4EE24FF248701F9
:1023500005C0E114F1040105110519F4E0E0F0E015
:1023600096C0628173819FEF623879070CF05BC081
:1023700022E83FEF261B370B2A3131052CF020E0F5
:1023800030E040E050E02AC0B801A701022E04C0AE
:1023900076956795579547950A94D2F781E090E036
:1023A000A0E0B0E004C0880F991FAA1FBB1F2A95A8
:1023B000D2F70197A109B1098E219F21A023B12352
:1023C0000097A105B10521F081E090E0A0E0B0E028
:1023D0009A01AB01282B392B4A2B5B2BDA01C9015F
:1023E0008F779070A070B07080349105A105B10511
:1023F00039F427FF09C0205C3F4F4F4F5F4F04C0A7
:10240000215C3F4F4F4F5F4FE0E0F0E02030A0E015
:102410003A07A0E04A07A0E45A0710F0E1E0F0E034
:1024200079018A0127C06038710564F5FB01E15824
:10243000FF4FD801C7018F779070A070B0708034C3
:102440009105A105B10539F4E7FE0DC080E490E0E7
:10245000A0E0B0E004C08FE390E0A0E0B0E0E80EC0
:10246000F91E0A1F1B1F17FF05C016950795F79445
:10247000E794319687E016950795F794E7948A9547
:10248000D1F705C0EE24FF248701EFEFF0E06E2FB7
:10249000679566276795902F9F77D794DD24D7940B
:1024A0008E2F8695492F462B582F5D29B701CA01DB
:1024B0001F910F91FF90EF90DF900895FC01DB01D9
:1024C000408151812281622F6F7770E0221F222785
:1024D000221F9381892F880F822B282F30E0991F8C
:1024E0009927991F11969C93119721153105A9F5EC
:1024F000411551056105710511F482E037C082E88C
:102500009FEF13969C938E9312979A01AB0167E00D
:10251000220F331F441F551F6A95D1F783E08C9318
:102520000DC0220F331F441F551F12968D919C9191
:102530001397019713969C938E931297203080E007
:10254000380780E0480780E4580758F314962D9325
:102550003D934D935C93179708952F3F310579F480
:10256000411551056105710519F484E08C930895B6
:1025700064FF03C081E08C9312C01C9210C02F57DF
:10258000304013963C932E93129783E08C9387E010
:10259000440F551F661F771F8A95D1F770641496F4
:1025A0004D935D936D937C93179708951F93DC0172
:1025B000FB019C91923008F447C08081823008F47E
:1025C00043C0943051F411961C91843099F5818167
:1025D000682F70E0611B71093FC0843021F0923098
:1025E00031F48230B9F18181882389F12DC01196AF
:1025F0001C9111978230F1F081811817D9F412964D
:102600002D913C911397828193818217930794F0C7
:1026100028173907BCF014968D919D910D90BC91AF
:10262000A02D2481358146815781281739074A0713
:102630005B0718F4112341F00AC082179307A4071F
:10264000B50740F4112319F061E070E005C06FEFA9
:102650007FEF02C060E070E0CB011F910895AA1BDC
:10266000BB1B51E107C0AA1FBB1FA617B70710F07D
:10267000A61BB70B881F991F5A95A9F780959095AF
:10268000BC01CD01089597FB092E07260AD077FDDE
:1026900004D0E5DF06D000201AF4709561957F4FD5
:1026A0000895F6F7909581959F4F08952F923F9248
:1026B0004F925F926F927F928F929F92AF92BF9252
:1026C000CF92DF92EF92FF920F931F93CF93DF93FE
:1026D000CDB7DEB7CA1BDB0B0FB6F894DEBF0FBE5B
:1026E000CDBF09942A88398848885F846E847D84A8
:1026F0008C849B84AA84B984C884DF80EE80FD80AA
:102700000C811B81AA81B981CE0FD11D0FB6F8941F
:10271000DEBF0FBECDBFED010895A0E0B0E0E3E95C
:10272000F3E10C945E13EC01A880B980CA80DB80D1
:10273000A114B104C104D10441F484E2A82E89EDAE
:10274000B82E8BE5C82E87E0D82EC601B5012DE145
:1027500033EF41E050E00E940D1427EA31E440E0FD
:1027600050E00E94EE137B018C01C601B5012DE102
:1027700033EF41E050E00E940D14CA01B9012CEE84
:1027800034EF4FEF5FEF0E94EE136E0D7F1D801F41
:10279000911F97FF04C0615070408040904868834B
:1027A00079838A839B839B013F77C901CDB7DEB7CD
:1027B000EAE00C947A130E948D13089588E092E069
:1027C0000E948D130895A0E0B0E0809308029093DA
:1027D0000902A0930A02B0930B020895629FD001F0
:1027E000739FF001829FE00DF11D649FE00DF11DCC
:1027F000929FF00D839FF00D749FF00D659FF00D7B
:102800009927729FB00DE11DF91F639FB00DE11D67
:10281000F91FBD01CF011124089597FB092E05264C
:102820000ED057FD04D014D00AD0001C38F45095B7
:102830004095309521953F4F4F4F5F4F0895F6F7E4
:1028400090958095709561957F4F8F4F9F4F08951C
:10285000A1E21A2EAA1BBB1BFD010DC0AA1FBB1FA4
:10286000EE1FFF1FA217B307E407F50720F0A21B16
:10287000B30BE40BF50B661F771F881F991F1A9483
:1028800069F760957095809590959B01AC01BD01AD
:08289000CF010895F894FFCF79
:10289800000000000000000000010202030303031F
:1028A80004040404040404040505050505050505D8
:1028B80005050505050505050606060606060606B8
:1028C80006060606060606060606060606060606A0
:1028D8000606060606060606070707070707070788
:1028E8000707070707070707070707070707070770
:1028F8000707070707070707070707070707070760
:10290800070707070707070707070707070707074F
:102918000707070707070707080808080808080837
:10292800080808080808080808080808080808081F
:10293800080808080808080808080808080808080F
:1029480008080808080808080808080808080808FF
:1029580008080808080808080808080808080808EF
:1029680008080808080808080808080808080808DF
:1029780008080808080808080808080808080808CF
:1029880008080808080808080808080808080808BF
:0C299800080808080808080801000000F2
:00000001FF
