:100000000C9438000C944A000C944A000C944A005A
:100010000C944A000C944A000C944A000C944A0038
:100020000C944A000C944A000C944A000C944A0028
:100030000C944A000C944A000C944A000C944A0018
:100040000C944A000C944A000C944A000C944A0008
:100050000C944A000C944A000C944A000C944A00F8
:100060000C944A000C944A000C944A000C944A00E8
:1000700011241FBECFEFD0E1DEBFCDBF1BE0A0E05B
:10008000B1E001C01D92AA39B107E1F70E949500C5
:100090000C94AA000C940000982F8091C00085FF5A
:1000A000FCCF9093C6000895282F8091C00085FF53
:1000B000FCCF8AEA8093C6008091C00085FFFCCF08
:1000C0008BEB8093C6008091C00085FFFCCF6093CE
:1000D000C6008091C00085FFFCCF842F8F70809375
:1000E000C6008091C00085FFFCCFCA01807F907060
:1000F00034E0969587953A95E1F78093C600809114
:10010000C00085FFFCCF40705F705093C6008091A7
:10011000C00085FFFCCF2093C6008091C00085FF02
:10012000FCCF8FE78093C60008953B9A98E098B97A
:1001300081E08093C5008FE98093C4009093C10053
:1001400086E08093C20080E06FEF4FEF5FEF0E9488
:080150005400FFCFF894FFCF2B
:00000001FF
